S00F00004156525F4E54492E73726563E2
S11300000C942A000C94A5030C94CE030C94F803CE
S11300100C9447000C9447000C94D7040C9485046A
S11300200C94AE040C945C040C9447000C944700AC
S11300300C9447000C9447000C9447000C94470020
S11300400C94DC010C9447000C9447000C9447007A
S11300500C94470011241FBECFE5D8E0DEBFCDBF0E
S113006010E0A0E6B0E0E4E0FAE002C005900D92F2
S1130070A23AB107D9F720E0A2EAB0E001C01D928C
S1130080A23BB207E1F70E94B3010C9400050C9463
S11300900000CF93C2E161E08C2F0E940903CF5F7F
S11300A0C631C9F7CF910895CF92DF92EF92FF92B4
S11300B00F931F93CF93DF9380E6E82E80E0F82E12
S11300C012E104E560E0812F0E940903C0E0D0E062
S11300D0DC2E8BE1D80E8D2D0E948803811123C064
S11300E0C1110EC0F70100818FE39CE90197F1F77C
S11300F000C000008D2D0E9488038823D9F313C00B
S113010091E0C91781F0FE013197EE0DFF1D0081CA
S1130110EFE3FCE93197F1F700C000008D2D0E9458
S113012088038823D9F32196C530D10589F661E087
S1130130812F0E9409031F5FF4E0EF0EF11C1631BA
S113014009F6802FDF91CF911F910F91FF90EF90CF
S1130150DF90CF900895CF93C82F60E083E00E9492
S113016009036C2F661F6627661F8CE00E94090333
S1130170C6FB662760F98AE00E940903C5FB66276F
S113018060F989E00E940903C4FB662760F988E0EE
S11301900E94090361E082E00E9409038FE99FE065
S11301A00197F1F700C0000060E082E00E940903BB
S11301B08FE99FE00197F1F700C00000C3FB6627B9
S11301C060F98CE00E940903C2FB662760F98AE0AB
S11301D00E940903C1FB662760F989E00E940903B4
S11301E06C2F617088E00E94090361E082E00E9444
S11301F009038FE99FE00197F1F700C0000060E078
S113020082E00E9409038FE99FE00197F1F700C0A3
S11302100000CF910895CF93C82F61E083E00E943E
S113022009036C2F661F6627661F8CE00E94090372
S1130230C6FB662760F98AE00E940903C5FB6627AE
S113024060F989E00E940903C4FB662760F988E02D
S11302500E94090361E082E00E9409038FE99FE0A4
S11302600197F1F700C0000060E082E00E940903FA
S11302708FE99FE00197F1F700C00000C3FB6627F8
S113028060F98CE00E940903C2FB662760F98AE0EA
S11302900E940903C1FB662760F989E00E940903F3
S11302A06C2F617088E00E94090361E082E00E9483
S11302B009038FE99FE00197F1F700C0000060E0B7
S11302C082E00E9409038FE99FE00197F1F700C0E3
S11302D00000CF91089581E00E94AB008FE99FE078
S11302E00197F1F700C0000008952FEF80E792E036
S11302F0215080409040E1F700C0000082E00E945D
S1130300AB0088E20E94AB008CE00E94AB000E942C
S11303106B0186E00C94AB00982F862F911102C0DC
S113032080580BC0913011F4805407C0923011F4FE
S11303308C5603C0933019F48C520C94AB0008957E
S11303400F931F93CF938C01C0E0F801EC0FF11DC4
S11303508081882321F00E940B01CF5FF6CFCF91DB
S11303601F910F91089578940E94F6020E9449000B
S11303700E94750163E081E00E94210483E00E94F1
S1130380410460E080E00E948C0180E790E00E94DC
S1130390A0010E945400843509F4FFCF8CBFD0E043
S11303A0C0E06C2F8D2F0E942104CF5FC530C9F7A8
S11303B0DF5FD430A9F7EDCF1F920F920FB60F92E3
S11303C011242F933F934F935F936F937F938F9356
S11303D09F93AF93BF93EF93FF93E091A200F091AB
S11303E0A300309709F00995FF91EF91BF91AF9168
S11303F09F918F917F916F915F914F913F912F9139
S11304000F900FBE0F901F901895982F9770869598
S113041086958695613009F44DC020F0623009F468
S113042096C008958130B1F028F0823019F18330FC
S113043089F108954AB321E030E0B90102C0660FA2
S1130440771F9A95E2F7CB01942F982B9ABB9BB315
S1130450809547C047B321E030E0B90102C0660F80
S1130460771F9A95E2F7CB01942F982B97BB98B3FB
S1130470809549C044B321E030E0B90102C0660F61
S1130480771F9A95E2F7CB01942F982B94BB95B3E1
S113049080954AC041B321E030E0B90102C0660F43
S11304A0771F9A95E2F7CB01942F982B91BB92B3C7
S11304B080954BC08130C1F028F0823031F1833017
S11304C0A9F108954AB321E030E0B90102C0660FF2
S11304D0771F9A95E2F7CB018095942F98239ABBC6
S11304E09BB389238BBB089547B321E030E0B90166
S11304F002C0660F771F9A95E2F7CB018095942F7F
S1130500982397BB98B389234BC044B321E030E0D0
S1130510B90102C0660F771F9A95E2F7CB01809567
S1130520942F982394BB95B389234CC041B321E005
S113053030E0B90102C0660F771F9A95E2F7CB014C
S11305408095942F982391BB92B389234DC0813019
S1130550B9F028F0823031F18330B1F108954AB313
S113056021E030E0B90102C0660F771F9A95E2F7E7
S1130570CB01962F909594239ABB9BB3892BB2CF32
S113058047B321E030E0B90102C0660F771F9A95A6
S1130590E2F7CB01962F9095942397BB98B3892BC0
S11305A088BB089544B321E030E0B90102C0660F6E
S11305B0771F9A95E2F7CB01962F9095942394BBDD
S11305C095B3892B85BB089541B321E030E0B9018F
S11305D002C0660F771F9A95E2F7CB01962F90958C
S11305E0942391BB92B3892B82BB08950F931F93DD
S11305F0CF9302E810E0C0E0F80161918F018C2FE5
S11306000E940502CF5FC032B9F7CF911F910F91BD
S11306100895982F97708695869586956130C1F5D3
S1130620813091F028F08230D9F0833029F1089597
S11306304BB321E030E0B90102C0660F771F9A95F1
S1130640E2F7CB01842B38C048B321E030E0B90194
S113065002C0660F771F9A95E2F7CB01842B3AC04C
S113066045B321E030E0B90102C0660F771F9A95C7
S1130670E2F7CB01842B3CC042B321E030E0B90166
S113068002C0660F771F9A95E2F7CB01842B3EC018
S11306908130A1F028F08230F9F0833059F10895C7
S11306A04BB321E030E0B90102C0660F771F9A9581
S11306B0E2F7CB01809584238BBB089548B321E0F6
S11306C030E0B90102C0660F771F9A95E2F7CB01BB
S11306D08095842388BB089545B321E030E0B901B7
S11306E002C0660F771F9A95E2F7CB0180958423A9
S11306F085BB089542B321E030E0B90102C0660F22
S1130700771F9A95E2F7CB018095842382BB0895E5
S1130710282F2770869586958695813049F030F08C
S1130720823041F0833079F480B305C089B303C0CB
S113073086B301C083B390E002C0959587952A954E
S1130740E2F78170089580E008951F920F920FB62A
S11307500F9211242F933F934F935F936F937F9343
S11307608F939F93AF93BF93EF93FF93E091A80070
S1130770F091A900309709F00995FF91EF91BF918D
S1130780AF919F918F917F916F915F914F913F9125
S11307902F910F900FBE0F901F90189578941F9271
S11307A00F920FB60F9211242F933F934F935F93A1
S11307B06F937F938F939F93AF93BF93EF93FF9325
S11307C0E091A600F091A700309709F00995FF91F8
S11307D0EF91BF91AF919F918F917F916F915F91B5
S11307E04F913F912F910F900FBE0F901F9018952E
S11307F01F920F920FB60F9211242F933F934F9392
S11308005F936F937F938F939F93AF93BF93EF9374
S1130810FF93E091A400F091A500309709F00995A9
S1130820FF91EF91BF91AF919F918F917F916F91C4
S11308305F914F913F912F910F900FBE0F901F909A
S11308401895813059F038F0823071F0833091F48A
S113085083B780640BC083B78F7B02C083B7806487
S113086083BF83B7877F05C083B78F7B83BF83B77D
S1130870886083BF83B7887F83BF83B7682B63BFD8
S11308800895813049F028F0823061F0833069F0B6
S1130890089583B78F7E02C083B7806183BF83B717
S11308A08F7D08C083B78F7E02C083B7806183BF0A
S11308B083B7806283BF08951F920F920FB60F9281
S11308C011242F933F934F935F936F937F938F9351
S11308D09F93AF93BF93EF93FF93E091B000F09198
S11308E0B100309709F00995FF91EF91BF91AF9155
S11308F09F918F917F916F915F914F913F912F9134
S11309000F900FBE0F901F9018951F920F920FB665
S11309100F9211242F933F934F935F936F937F9381
S11309208F939F93AF93BF93EF93FF93E091AE00A8
S1130930F091AF00309709F00995FF91EF91BF91C5
S1130940AF919F918F917F916F915F914F913F9163
S11309502F910F900FBE0F901F9018951F920F921A
S11309600FB60F9211242F933F934F935F936F937E
S11309707F938F939F93AF93BF93EF93FF93E091F4
S1130980AC00F091AD00309709F00995FF91EF911B
S1130990BF91AF919F918F917F916F915F914F9193
S11309A03F912F910F900FBE0F901F9018951F929B
S11309B00F920FB60F9211242F933F934F935F938F
S11309C06F937F938F939F93AF93BF93EF93FF9313
S11309D0E091AA00F091AB00309709F00995FF91DE
S11309E0EF91BF91AF919F918F917F916F915F91A3
S11309F04F913F912F910F900FBE0F901F9018951C
S1070A00F894FFCF94
S1130A0414283C5064788CA0B4C8DCF0FF000A417C
S1130A1454494D4552305F4B5041445F5049414E17
S1130A244F0001000000000000000000000000006E
S1130A3400000000000000000000000202020202A4
S1050A440202A8
S9030000FC
