S00F00004156525F4E54492E73726563E2
S11300000C942A000C9447060C9470060C949A06DF
S11300100C9447000C9447000C9449070C94F70681
S11300200C9420070C94CE060C9447000C944700C3
S11300300C9447000C9483070C9447000C94AC0771
S11300400C949B040C9447000C9447000C944700B8
S11300500C94470011241FBECFE5D8E0DEBFCDBF0E
S113006011E0A0E6B0E0E0E3F0E102C005900D92FB
S1130070A230B107D9F721E0A2E0B1E001C01D929E
S1130080A931B207E1F70E9462020C9416080C949D
S11300900000CF93C82F60E084E00E94C8056C2F55
S11300A0661F6627661F83E00E94C805C6FB662795
S11300B060F982E00E94C805C5FB662760F981E00B
S11300C00E94C805C4FB662760F980E00E94C80549
S11300D061E085E00E94C8058FEC97E00197F1F795
S11300E000C0000060E085E00E94C8058FEC97E046
S11300F00197F1F700C00000C3FB662760F983E0B5
S11301000E94C805C2FB662760F982E00E94C80508
S1130110C1FB662760F981E00E94C8056C2F6170FD
S113012080E00E94C80561E085E00E94C8058FEC6C
S113013097E00197F1F700C0000060E085E00E94BD
S1130140C8058FEC97E00197F1F700C00000CF914C
S11301500895CF93C82F61E084E00E94C8056C2FF6
S1130160661F6627661F83E00E94C805C6FB6627D4
S113017060F982E00E94C805C5FB662760F981E04A
S11301800E94C805C4FB662760F980E00E94C80588
S113019061E085E00E94C8058FEC97E00197F1F7D4
S11301A000C0000060E085E00E94C8058FEC97E085
S11301B00197F1F700C00000C3FB662760F983E0F4
S11301C00E94C805C2FB662760F982E00E94C80548
S11301D0C1FB662760F981E00E94C8056C2F61703D
S11301E080E00E94C80561E085E00E94C8058FECAC
S11301F097E00197F1F700C0000060E085E00E94FD
S1130200C8058FEC97E00197F1F700C00000CF918B
S1130210089581E00E9449008FEC97E00197F1F77F
S113022000C0000008952FE788E391E0215080404A
S11302309040E1F700C0000082E00E94490088E29B
S11302400E9449008CE00E9449000E94090186E056
S11302500C944900982F862F911102C080580BC02E
S1130260913011F4805407C0923011F48C5603C0BD
S1130270933019F48C520C94490008950F931F93F2
S1130280CF938C01C0E0F801EC0FF11D808188232D
S113029021F00E94A900CF5FF6CFCF911F910F915B
S11302A008954F925F926F927F92AF92BF92CF92D6
S11302B0DF92EF92FF921F93CF93DF93CDB7DEB718
S11302C064970FB6F894DEBF0FBECDBF6B017C01FF
S11302D06115710581059105B1F480E364960FB64B
S11302E0F894DEBF0FBECDBFDF91CF911F91FF9079
S11302F0EF90DF90CF90BF90AF907F906F905F9022
S11303004F900C94A90097FF0BC08DE20E94A900A6
S1130310F094E094D094C094C11CD11CE11CF11C55
S113032010E09AE0492E512C612C712CAA24A3943C
S1130330B12CAC0EBD1EA10EB11C17FDBA94C701A1
S1130340B601A30192010E94F707605DF501608385
S113035081E0810F69017A01C114D104E104F1043F
S113036011F0182FE3CFE1E0F0E0EC0FFD1FE80FF0
S1130370F11D87FDFA9580E3808317FD0DC0E1E050
S1130380F0E0EC0FFD1FE10FF11D17FDFA958081E0
S11303900E94A9001150F1CF64960FB6F894DEBF05
S11303A00FBECDBFDF91CF911F91FF90EF90DF90F3
S11303B0CF90BF90AF907F906F905F904F900895D3
S11303C00E9478078093040180910401813481F0B4
S11303D080910401823461F080910401833441F0FE
S11303E080910401843421F080910401823559F410
S11303F060E08AE00E94C80580910401823519F406
S113040081E08093030180910401853409F44FC095
S113041080910401863409F44AC080910401873430
S113042009F445C080910401883409F440C08091E6
S113043004018636E1F1809104018236C1F1809194
S113044004018337A1F180910401823781F1809105
S113045004018C3661F180910401803341F1809173
S11304600401813321F180910201823301F18091F1
S113047004018333E1F0809104018433C1F080915D
S113048004018533A1F080910401863381F08091C9
S11304900401873361F080910401883341F0809135
S11304A00401893321F0809104018A3721F460E04A
S11304B089E00E94C805809104010E94C9068093C6
S11304C00201089578940E94B5050E9472070E9463
S11304D0C3060E9413010E947C0780EE91E00E94F3
S11304E07E0761E08BE00E94C80560E080E00E9426
S11304F02A0180E690E00E943E0160E081E00E94D3
S11305002A0185E790E00E943E018BE790E00E947B
S11305103E018FE790E00E943E0184E890E00E9453
S11305203E0189E890E00E943E0160E082E00E9482
S11305302A018EE890E00E943E0160E083E00E9480
S11305402A018BE990E00E943E016BE083E00E9467
S11305502A0186EA90E00E943E016CE083E00E945A
S11305602A0188EA90E00E943E01809103018130D3
S1130570F1F480910201880F809302016DE082E022
S11305800E942A018FEA90E00E943E016DE082E021
S11305900E942A016091020170E080E090E00E94D4
S11305A0510187EB90E00E943E011092030180917B
S11305B00401823409F4C5C008F060C0853309F42D
S11305C065C170F5823309F443C1A8F4803309F49A
S11305D030C1813309F0A6C162E183E00E942A019F
S11305E085EB90E00E943E0162E183E00E942A01D3
S11305F08DE790E095C1833309F439C1843309F060
S113060091C162E183E00E942A0185EB90E00E949F
S11306103E0162E183E00E942A018CE890E080C1FF
S1130620883309F451C1A8F4863309F43EC18733F1
S113063009F078C162E183E00E942A0185EB90E031
S11306400E943E0162E183E00E942A018AED90E06B
S113065067C1893309F447C1813409F063C165E096
S113066081E00E942A0183EB90E00E943E0165E054
S113067081E00E942A018AEB90E052C1883409F497
S11306809CC070F5853409F46BC0A8F4833409F474
S113069085C0843409F046C169E081E00E942A01E2
S11306A083EB90E00E943E0169E081E00E942A0110
S11306B080E890E035C1863409F461C0873409F0DC
S11306C031C16DE081E00E942A0183EB90E00E9439
S11306D03E016DE081E00E942A0185E890E020C19E
S11306E08C3609F488C0A8F4823609F475C08636BD
S11306F009F018C16AE083E00E942A0185EB90E0CA
S11307000E943E016AE083E00E942A018AEC90E0A4
S113071007C1833709F47EC08A3709F4F3C08237EE
S113072009F000C16AE083E00E942A0185EB90E0B1
S11307300E943E016AE083E00E942A018EEC90E070
S1130740EFC069E081E00E942A0183EB90E00E94FF
S11307503E0169E081E00E942A018EEB90E0E0C056
S11307606DE081E00E942A0183EB90E00E943E014B
S11307706DE081E00E942A0182EC90E0D1C061E149
S113078081E00E942A0183EB90E00E943E0161E136
S113079081E00E942A0186EC90E0C2C065E081E01D
S11307A00E942A0183EB90E00E943E0165E081E013
S11307B00E942A018BE790E0B3C061E181E00E94CE
S11307C02A0183EB90E00E943E0161E181E00E94F6
S11307D02A018AE890E0A4C06AE083E00E942A012A
S11307E085EB90E00E943E016AE083E00E942A01CA
S11307F08CEC90E095C06AE083E00E942A0185EBCE
S113080090E00E943E016AE083E00E942A0180EDAC
S113081090E086C06AE083E00E942A0185EB90E0C4
S11308200E943E016AE083E00E942A0182ED90E08A
S113083077C062E183E00E942A0185EB90E00E9488
S11308403E0162E183E00E942A0184ED90E068C0E9
S113085062E183E00E942A0185EB90E00E943E0160
S113086062E183E00E942A0182E890E059C062E1DB
S113087083E00E942A0185EB90E00E943E0162E140
S113088083E00E942A0187E890E04AC062E183E0A5
S11308900E942A0185EB90E00E943E0162E183E020
S11308A00E942A0186ED90E03BC062E183E00E9451
S11308B02A0185EB90E00E943E0162E183E00E9400
S11308C02A0188ED90E02CC062E183E00E942A01B5
S11308D085EB90E00E943E0162E183E00E942A01E0
S11308E08CED90E01DC062E183E00E942A0185EB5B
S11308F090E00E943E0162E183E00E942A018EEDB5
S113090090E00EC062E183E00E942A0185EB90E052
S11309100E943E0162E183E00E942A0180EE90E0A1
S11309200E943E0161E08AE00E94C80561E089E01E
S11309300E94C8051ACE1F920F920FB60F9211246F
S11309402F933F934F935F936F937F938F939F93D3
S1130950AF93BF93EF93FF93E0910501F0910601EC
S1130960309709F00995FF91EF91BF91AF919F9155
S11309708F917F916F915F914F913F912F910F9044
S11309800FBE0F901F901895982F97708695869597
S11309908695613009F44DC020F0623009F496C0A8
S11309A008958130B1F028F0823019F1833089F153
S11309B008954AB321E030E0B90102C0660F771F01
S11309C09A95E2F7CB01942F982B9ABB9BB3809511
S11309D047C047B321E030E0B90102C0660F771F7A
S11309E09A95E2F7CB01942F982B97BB98B38095F7
S11309F049C044B321E030E0B90102C0660F771F5B
S1130A009A95E2F7CB01942F982B94BB95B38095DC
S1130A104AC041B321E030E0B90102C0660F771F3C
S1130A209A95E2F7CB01942F982B91BB92B38095C2
S1130A304BC08130C1F028F0823031F18330A9F10C
S1130A4008954AB321E030E0B90102C0660F771F70
S1130A509A95E2F7CB018095942F98239ABB9BB388
S1130A6089238BBB089547B321E030E0B90102C06C
S1130A70660F771F9A95E2F7CB018095942F982300
S1130A8097BB98B389234BC044B321E030E0B9014C
S1130A9002C0660F771F9A95E2F7CB018095942FD9
S1130AA0982394BB95B389234CC041B321E030E033
S1130AB0B90102C0660F771F9A95E2F7CB018095C2
S1130AC0942F982391BB92B389234DC08130B9F000
S1130AD028F0823031F18330B1F108954AB321E036
S1130AE030E0B90102C0660F771F9A95E2F7CB0197
S1130AF0962F909594239ABB9BB3892BB2CF47B37F
S1130B0021E030E0B90102C0660F771F9A95E2F741
S1130B10CB01962F9095942397BB98B3892B88BBD0
S1130B20089544B321E030E0B90102C0660F771F95
S1130B309A95E2F7CB01962F9095942394BB95B3A5
S1130B40892B85BB089541B321E030E0B90102C08F
S1130B50660F771F9A95E2F7CB01962F9095942311
S1130B6091BB92B3892B82BB08950F931F93CF93AC
S1130B7002EE10E0C0E0F80161918F018C2F0E9419
S1130B80C404CF5FC032B9F7CF911F910F9108957C
S1130B90982F97708695869586956130C1F581303A
S1130BA091F028F08230D9F0833029F108954BB3C5
S1130BB021E030E0B90102C0660F771F9A95E2F791
S1130BC0CB01842B38C048B321E030E0B90102C026
S1130BD0660F771F9A95E2F7CB01842B3AC045B391
S1130BE021E030E0B90102C0660F771F9A95E2F761
S1130BF0CB01842B3CC042B321E030E0B90102C0F8
S1130C00660F771F9A95E2F7CB01842B3EC08130A3
S1130C10A1F028F08230F9F0833059F108954BB3F4
S1130C2021E030E0B90102C0660F771F9A95E2F720
S1130C30CB01809584238BBB089548B321E030E039
S1130C40B90102C0660F771F9A95E2F7CB01809530
S1130C50842388BB089545B321E030E0B90102C084
S1130C60660F771F9A95E2F7CB018095842385BBA5
S1130C70089542B321E030E0B90102C0660F771F46
S1130C809A95E2F7CB018095842382BB08951F9245
S1130C900F920FB60F9211242F933F934F935F93AC
S1130CA06F937F938F939F93AF93BF93EF93FF9330
S1130CB0E0910B01F0910C01309709F00995FF9137
S1130CC0EF91BF91AF919F918F917F916F915F91C0
S1130CD04F913F912F910F900FBE0F901F90189539
S1130CE078941F920F920FB60F9211242F933F9373
S1130CF04F935F936F937F938F939F93AF93BF9320
S1130D00EF93FF93E0910901F0910A01309709F004
S1130D100995FF91EF91BF91AF919F918F917F9131
S1130D206F915F914F913F912F910F900FBE0F9054
S1130D301F9018951F920F920FB60F9211242F93A4
S1130D403F934F935F936F937F938F939F93AF934F
S1130D50BF93EF93FF93E0910701F091080130975F
S1130D6009F00995FF91EF91BF91AF919F918F91F8
S1130D707F916F915F914F913F912F910F900FBE93
S1130D800F901F9018956C9A6898699A68986E9A53
S1130D9008958FB9779BFECF8FB108951F920F925C
S1130DA00FB60F9211242F933F934F935F936F933A
S1130DB07F938F939F93AF93BF93EF93FF93E091B0
S1130DC01301F0911401309709F00995FF91EF9107
S1130DD0BF91AF919F918F917F916F915F914F914F
S1130DE03F912F910F900FBE0F901F9018951F9257
S1130DF00F920FB60F9211242F933F934F935F934B
S1130E006F937F938F939F93AF93BF93EF93FF93CE
S1130E10E0911101F0911201309709F00995FF91C9
S1130E20EF91BF91AF919F918F917F916F915F915E
S1130E304F913F912F910F900FBE0F901F901895D7
S1130E401F920F920FB60F9211242F933F934F933B
S1130E505F936F937F938F939F93AF93BF93EF931E
S1130E60FF93E0910F01F0911001309709F009957B
S1130E70FF91EF91BF91AF919F918F917F916F916E
S1130E805F914F913F912F910F900FBE0F901F9044
S1130E9018951F920F920FB60F9211242F933F9320
S1130EA04F935F936F937F938F939F93AF93BF936E
S1130EB0EF93FF93E0910D01F0910E01309709F04B
S1130EC00995FF91EF91BF91AF919F918F917F9180
S1130ED06F915F914F913F912F910F900FBE0F90A3
S1130EE01F90189583E389B95998539A549A089591
S1130EF05F9BFECF8CB10895579A08959093180183
S1130F008093170108951F920F920FB60F92112428
S1130F102F933F934F935F936F937F938F939F93FD
S1130F20AF93BF93EF93FF93E0911701F0911801F2
S1130F30309709F00995FF91EF91BF91AF919F917F
S1130F408F917F916F915F914F913F912F910F906E
S1130F500FBE0F901F9018951F920F920FB60F920D
S1130F6011242F933F934F935F936F937F938F93AA
S1130F709F93AF93BF93EF93FF93E0911501F0918B
S1130F801601309709F00995FF91EF91BF91AF9148
S1130F909F918F917F916F915F914F913F912F918D
S1130FA00F900FBE0F901F901895A1E21A2EAA1B46
S1130FB0BB1BFD010DC0AA1FBB1FEE1FFF1FA21705
S1130FC0B307E407F50720F0A21BB30BE40BF50B02
S1130FD0661F771F881F991F1A9469F7609570958B
S1130FE0809590959B01AC01BD01CF010895052E1C
S1130FF097FB1EF400940E940E0857FD07D00E9430
S1131000D50707FC03D04EF40C940E085095409578
S1131010309521953F4F4F4F5F4F089590958095A0
S1131020709561957F4F8F4F9F4F0895F894FFCF30
S11310302A2A2A2A4341525F50524F4A4543542A8E
S11310402A2A2A2A00444F4F523A004F46310020A0
S11310504F463200204F463300204F46340054455B
S11310604D505F53454E534F523D004D4F544F52D8
S11310705F4449523A007C0053504545443A0020AD
S1131080202020202020002043004F4E31004F4ECE
S113109032004F4E33004F4E34005E0056003E0087
S11310A03C0053003000350036003700380039006A
S11310B07E000000000000000000000000000100AD
S11310C00100000000000000000001000202020212
S10510D0020216
S9030000FC
