:100000000C9432000C943B040C9464040C948E0405
:100010000C944F000C944F000C9456050C9404055E
:100020000C942D050C94DB040C944F000C94590196
:100030000C944F000C944F000C944F000C944F0004
:100040000C9408020C944F000C944F000C944F0039
:100050000C944F00E301E501EA01EC01F401F60123
:10006000FB01FD0111241FBECFE5D8E0DEBFCDBFEF
:1000700010E0A0E6B0E0EEE0FBE002C005900D92DB
:10008000AC38B107D9F720E0ACE8B0E001C01D9270
:10009000AF39B207E1F70E94A2010C9485050C94D8
:1000A0000000CF93C82F60E083E00E9435036C2FDF
:1000B000661F6627661F8CE00E943503C6FB662715
:1000C00060F98AE00E943503C5FB662760F989E084
:1000D0000E943503C4FB662760F988E00E9435035F
:1000E00061E082E00E9435038FEC97E00197F1F721
:1000F00000C0000060E082E00E9435038FEC97E0D2
:100100000197F1F700C00000C3FB662760F98CE09F
:100110000E943503C2FB662760F98AE00E9435031E
:10012000C1FB662760F989E00E9435036C2F61707E
:1001300088E00E94350361E082E00E9435038FEC85
:1001400097E00197F1F700C0000060E082E00E94B4
:1001500035038FEC97E00197F1F700C00000CF91D5
:100160000895CF93C82F61E083E00E9435036C2F80
:10017000661F6627661F8CE00E943503C6FB662754
:1001800060F98AE00E943503C5FB662760F989E0C3
:100190000E943503C4FB662760F988E00E9435039E
:1001A00061E082E00E9435038FEC97E00197F1F760
:1001B00000C0000060E082E00E9435038FEC97E011
:1001C0000197F1F700C00000C3FB662760F98CE0DF
:1001D0000E943503C2FB662760F98AE00E9435035E
:1001E000C1FB662760F989E00E9435036C2F6170BE
:1001F00088E00E94350361E082E00E9435038FECC5
:1002000097E00197F1F700C0000060E082E00E94F3
:1002100035038FEC97E00197F1F700C00000CF9114
:10022000089581E00E9451008FEC97E00197F1F76B
:1002300000C0000008952FE788E391E0215080403E
:100240009040E1F700C0000082E00E94510088E287
:100250000E9451008CE00E9451000E94110186E032
:100260000C945100982F862F911102C080580BC01A
:10027000913011F4805407C0923011F48C5603C0B1
:10028000933019F48C520C94510008950F931F93DE
:10029000CF938C01C0E0F801EC0FF11D8081882321
:1002A00021F00E94B100CF5FF6CFCF911F910F9147
:1002B00008951F920F920FB60F9211242F933F9320
:1002C0004F935F936F937F938F939F93AF93BF935E
:1002D000EF93FF938FE00E94B40380918E008F5FB5
:1002E00080938E0080918D008F5F80938D00809130
:1002F0008C00823029F484E00E94B40310928C00B8
:1003000080918E00853021F40E94B40310928E00FB
:1003100080918D008A3029F486E00E94B403109207
:100320008D00FF91EF91BF91AF919F918F917F9140
:100330006F915F914F913F912F910F900FBE0F9052
:100340001F90189578940E9422030E941B010E941E
:100350002F0463E082E00E94B70466E081E00E941F
:10036000C3010E9406020E94D70484E00E94D801C3
:1003700060E080E00E94320180E690E00E94460149
:1003800089EF8CBFFFCF813041F028F0823039F403
:100390003E9A3F9A04C03E9801C03E9A3F9886B16B
:1003A000887F86B986B16770682B66B9379A0895D9
:1003B000359A90E08830910540F5FC01E65DFF4FED
:1003C00080B70C947F058F7D01C0806280BF80B7AD
:1003D0008F7B06C08F7D01C0806280BF80B7806444
:1003E00080BF80B78F7710C08F7D01C0806280BFD3
:1003F00080B78F7B06C08F7D01C0806280BF80B7D1
:10040000806480BF80B7806880BF0895339A089564
:100410001F920F920FB60F9211242F933F934F9379
:100420005F936F937F938F939F93AF93BF93EF935C
:10043000FF93E0918F00F0919000309709F00995BB
:10044000FF91EF91BF91AF919F918F917F916F91AC
:100450005F914F913F912F910F900FBE0F901F9082
:100460001895982F9770869586958695613009F432
:100470004DC020F0623009F496C008958130B1F08B
:1004800028F0823019F1833089F108954AB321E0D0
:1004900030E0B90102C0660F771F9A95E2F7CB01F1
:1004A000942F982B9ABB9BB3809547C047B321E00C
:1004B00030E0B90102C0660F771F9A95E2F7CB01D1
:1004C000942F982B97BB98B3809549C044B321E0F3
:1004D00030E0B90102C0660F771F9A95E2F7CB01B1
:1004E000942F982B94BB95B380954AC041B321E0DB
:1004F00030E0B90102C0660F771F9A95E2F7CB0191
:10050000942F982B91BB92B380954BC08130C1F052
:1005100028F0823031F18330A9F108954AB321E007
:1005200030E0B90102C0660F771F9A95E2F7CB0160
:100530008095942F98239ABB9BB389238BBB0895F6
:1005400047B321E030E0B90102C0660F771F9A95EA
:10055000E2F7CB018095942F982397BB98B389231A
:100560004BC044B321E030E0B90102C0660F771FF1
:100570009A95E2F7CB018095942F982394BB95B37D
:1005800089234CC041B321E030E0B90102C0660FBD
:10059000771F9A95E2F7CB018095942F982391BB12
:1005A00092B389234DC08130B9F028F0823031F107
:1005B0008330B1F108954AB321E030E0B90102C0BF
:1005C000660F771F9A95E2F7CB01962F90959423AB
:1005D0009ABB9BB3892BB2CF47B321E030E0B9017E
:1005E00002C0660F771F9A95E2F7CB01962F909580
:1005F000942397BB98B3892B88BB089544B321E01B
:1006000030E0B90102C0660F771F9A95E2F7CB017F
:10061000962F9095942394BB95B3892B85BB089511
:1006200041B321E030E0B90102C0660F771F9A950F
:10063000E2F7CB01962F9095942391BB92B3892B2F
:1006400082BB08950F931F93CF930BE610E0C0E099
:10065000F80161918F018C2F0E943102CF5FC0326F
:10066000B9F7CF911F910F910895982F97708695A4
:10067000869586956130C1F5813091F028F0823001
:10068000D9F0833029F108954BB321E030E0B9016E
:1006900002C0660F771F9A95E2F7CB01842B38C012
:1006A00048B321E030E0B90102C0660F771F9A9588
:1006B000E2F7CB01842B3AC045B321E030E0B90129
:1006C00002C0660F771F9A95E2F7CB01842B3CC0DE
:1006D00042B321E030E0B90102C0660F771F9A955E
:1006E000E2F7CB01842B3EC08130A1F028F08230AC
:1006F000F9F0833059F108954BB321E030E0B901AE
:1007000002C0660F771F9A95E2F7CB01809584238C
:100710008BBB089548B321E030E0B90102C0660FF9
:10072000771F9A95E2F7CB018095842388BB0895C3
:1007300045B321E030E0B90102C0660F771F9A95FA
:10074000E2F7CB018095842385BB089542B321E075
:1007500030E0B90102C0660F771F9A95E2F7CB012E
:100760008095842382BB0895282F277086958695CF
:100770008695813081F028F08230B9F08330F9F02D
:1007800008953BB381E090E001C0880F2A95EAF715
:1007900083278BBB089538B381E090E001C0880FB8
:1007A0002A95EAF7832788BB089535B381E090E066
:1007B00001C0880F2A95EAF7832785BB089532B3D5
:1007C00081E090E001C0880F2A95EAF7832782BB79
:1007D00008958130F1F018F08230B1F10895613060
:1007E00049F028F0623061F0633069F0089585B710
:1007F0008E7F02C085B7816085BF85B78D7F22C09F
:1008000085B78E7F02C085B7816085BF85B782605E
:1008100019C0613049F028F0623061F0633069F04E
:10082000089585B78B7F02C085B7846085BF85B783
:10083000877F08C085B78B7F02C085B7846085BF7E
:1008400085B7886085BF0895623029F0633019F458
:1008500084B7806402C084B78F7B84BF089562E050
:1008600080E00E94E90362E081E00E94E90362E027
:1008700082E00C94E9031F920F920FB60F9211249D
:100880002F933F934F935F936F937F938F939F9398
:10089000AF93BF93EF93FF93E0919500F091960093
:1008A000309709F00995FF91EF91BF91AF919F911A
:1008B0008F917F916F915F914F913F912F910F9009
:1008C0000FBE0F901F90189578941F920F920FB63D
:1008D0000F9211242F933F934F935F936F937F93C6
:1008E0008F939F93AF93BF93EF93FF93E091930008
:1008F000F0919400309709F00995FF91EF91BF9125
:10090000AF919F918F917F916F915F914F913F91A7
:100910002F910F900FBE0F901F9018951F920F925E
:100920000FB60F9211242F933F934F935F936F93C2
:100930007F938F939F93AF93BF93EF93FF93E09138
:100940009100F0919200309709F00995FF91EF9195
:10095000BF91AF919F918F917F916F915F914F91D7
:100960003F912F910F900FBE0F901F9018958130DF
:1009700059F038F0823071F0833091F483B780649D
:100980000BC083B78F7B02C083B7806483BF83B7FC
:10099000877F05C083B78F7B83BF83B7886083BFA2
:1009A00083B7887F83BF83B7682B63BF089589B7F8
:1009B000816089BF08951F920F920FB60F92112484
:1009C0002F933F934F935F936F937F938F939F9357
:1009D000AF93BF93EF93FF93E0919D00F0919E0042
:1009E000309709F00995FF91EF91BF91AF919F91D9
:1009F0008F917F916F915F914F913F912F910F90C8
:100A00000FBE0F901F9018951F920F920FB60F9266
:100A100011242F933F934F935F936F937F938F9303
:100A20009F93AF93BF93EF93FF93E0919B00F0915F
:100A30009C00309709F00995FF91EF91BF91AF911C
:100A40009F918F917F916F915F914F913F912F91E6
:100A50000F900FBE0F901F9018951F920F920FB618
:100A60000F9211242F933F934F935F936F937F9334
:100A70008F939F93AF93BF93EF93FF93E091990070
:100A8000F0919A00309709F00995FF91EF91BF918D
:100A9000AF919F918F917F916F915F914F913F9116
:100AA0002F910F900FBE0F901F9018951F920F92CD
:100AB0000FB60F9211242F933F934F935F936F9331
:100AC0007F938F939F93AF93BF93EF93FF93E091A7
:100AD0009700F0919800309709F00995FF91EF91F8
:100AE000BF91AF919F918F917F916F915F914F9146
:100AF0003F912F910F900FBE0F901F901895EE0F02
:0E0B0000FF1F0590F491E02D0994F894FFCFAB
:100B0E0054494D4552305F414443000100000000FE
:100B1E0000000000000002000000000000000000C5
:0C0B2E00000000000202020202020200AD
:00000001FF
