S00F00004156525F4E54492E73726563E2
S11300000C9432000C94FB040C9424050C944E05BF
S11300100C944F000C944F000C944F000C944F0020
S11300200C944F000C944F000C944F000C944F0010
S11300300C944F000C944F000C944F000C944F0000
S11300400C94BB020C944F000C944F000C944F0082
S11300500C944F009102930298029A02A202A40205
S1130060A902AB0211241FBECFE5D8E0DEBFCDBF8D
S113007010E0A0E6B0E0EEE9FBE002C005900D92CE
S1130080AC39B107D9F720E0ACE9B0E001C01D926A
S1130090A93AB207E1F70E94FE010C94CD050C9435
S11300A00000CF93C82F60E083E00E94E8036C2F28
S11300B0661F6627661F8CE00E94E803C6FB66275E
S11300C060F98AE00E94E803C5FB662760F989E0CD
S11300D00E94E803C4FB662760F988E00E94E803F5
S11300E061E082E00E94E8038FEC97E00197F1F76A
S11300F000C0000060E082E00E94E8038FEC97E01B
S11301000197F1F700C00000C3FB662760F98CE09B
S11301100E94E803C2FB662760F98AE00E94E803B4
S1130120C1FB662760F989E00E94E8036C2F6170C7
S113013088E00E94E80361E082E00E94E8038FEC1B
S113014097E00197F1F700C0000060E082E00E94B0
S1130150E8038FEC97E00197F1F700C00000CF911E
S11301600895CF93C82F61E083E00E94E8036C2FC9
S1130170661F6627661F8CE00E94E803C6FB66279D
S113018060F98AE00E94E803C5FB662760F989E00C
S11301900E94E803C4FB662760F988E00E94E80334
S11301A061E082E00E94E8038FEC97E00197F1F7A9
S11301B000C0000060E082E00E94E8038FEC97E05A
S11301C00197F1F700C00000C3FB662760F98CE0DB
S11301D00E94E803C2FB662760F98AE00E94E803F4
S11301E0C1FB662760F989E00E94E8036C2F617007
S11301F088E00E94E80361E082E00E94E8038FEC5B
S113020097E00197F1F700C0000060E082E00E94EF
S1130210E8038FEC97E00197F1F700C00000CF915D
S1130220089581E00E9451008FEC97E00197F1F767
S113023000C0000008952FE788E391E0215080403A
S11302409040E1F700C0000082E00E94510088E283
S11302500E9451008CE00E9451000E94110186E02E
S11302600C945100982F862F911102C080580BC016
S1130270913011F4805407C0923011F48C5603C0AD
S1130280933019F48C520C94510008950F931F93DA
S1130290CF938C01C0E0F801EC0FF11D808188231D
S11302A021F00E94B100CF5FF6CFCF911F910F9143
S11302B008954F925F926F927F92AF92BF92CF92C6
S11302C0DF92EF92FF921F93CF93DF93CDB7DEB708
S11302D064970FB6F894DEBF0FBECDBF6B017C01EF
S11302E06115710581059105B1F480E364960FB63B
S11302F0F894DEBF0FBECDBFDF91CF911F91FF9069
S1130300EF90DF90CF90BF90AF907F906F905F9011
S11303104F900C94B10097FF0BC08DE20E94B10086
S1130320F094E094D094C094C11CD11CE11CF11C45
S113033010E09AE0492E512C612C712CAA24A3942C
S1130340B12CAC0EBD1EA10EB11C17FDBA94C70191
S1130350B601A30192010E947705605DF5016083F7
S113036081E0810F69017A01C114D104E104F1042F
S113037011F0182FE3CFE1E0F0E0EC0FFD1FE80FE0
S1130380F11D87FDFA9580E3808317FD0DC0E1E040
S1130390F0E0EC0FFD1FE10FF11D17FDFA958081D0
S11303A00E94B1001150F1CF64960FB6F894DEBFED
S11303B00FBECDBFDF91CF911F91FF90EF90DF90E3
S11303C0CF90BF90AF907F906F905F904F900895C3
S11303D081E08093A000089580E00E9469029093D8
S11303E09F0080939E0080E00E94750290939D0080
S11303F080939C0082E08093A000089578940E94EA
S1130400D5030E94DA040E941B0166E081E00E9489
S113041054020E94B40280E00E94840463E080E0FD
S11304200E94940482E00E94860268EE71E080E0FB
S11304300E94E6048CEE91E00E94B60260E080E047
S11304400E94320180E690E00E9446018091A00063
S1130450823011F560E081E00E94320180E790E093
S11304600E94460160919E0070919F0080E090E0A0
S11304700E94590160E082E00E94320185E790E029
S11304800E94460160919C0070919D0080E090E084
S11304900E9459011092A0008BE10E94670481110F
S11304A0D5CF0E941101CACF813041F028F08230AB
S11304B039F43E9A3F9A04C03E9801C03E9A3F9850
S11304C086B1887F86B986B16770682B66B9379A1A
S11304D0089597B1907E97B997B1892B87B9369AC9
S11304E03699FECF84B195B108950E9469029C01AA
S11304F0A8E8B3E10E949C05DC01CB012AE0B69593
S1130500A795979587952A95D1F70895359A90E000
S11305108830910540F5FC01E65DFF4F80B70C94EF
S113052096058F7D01C0806280BF80B78F7B06C037
S11305308F7D01C0806280BF80B7806480BF80B738
S11305408F7710C08F7D01C0806280BF80B78F7BA2
S113055006C08F7D01C0806280BF80B7806480BF89
S113056080B7806880BF0895339A08959093A2005D
S11305708093A10008951F920F920FB60F92112439
S11305802F933F934F935F936F937F938F939F9397
S1130590AF93BF93EF93FF93E091A100F091A2007A
S11305A0309709F00995FF91EF91BF91AF919F9119
S11305B08F917F916F915F914F913F912F910F9008
S11305C00FBE0F901F901895982F9770869586955B
S11305D08695613009F44DC020F0623009F496C06C
S11305E008958130B1F028F0823019F1833089F117
S11305F008954AB321E030E0B90102C0660F771FC5
S11306009A95E2F7CB01942F982B9ABB9BB38095D4
S113061047C047B321E030E0B90102C0660F771F3D
S11306209A95E2F7CB01942F982B97BB98B38095BA
S113063049C044B321E030E0B90102C0660F771F1E
S11306409A95E2F7CB01942F982B94BB95B38095A0
S11306504AC041B321E030E0B90102C0660F771F00
S11306609A95E2F7CB01942F982B91BB92B3809586
S11306704BC08130C1F028F0823031F18330A9F1D0
S113068008954AB321E030E0B90102C0660F771F34
S11306909A95E2F7CB018095942F98239ABB9BB34C
S11306A089238BBB089547B321E030E0B90102C030
S11306B0660F771F9A95E2F7CB018095942F9823C4
S11306C097BB98B389234BC044B321E030E0B90110
S11306D002C0660F771F9A95E2F7CB018095942F9D
S11306E0982394BB95B389234CC041B321E030E0F7
S11306F0B90102C0660F771F9A95E2F7CB01809586
S1130700942F982391BB92B389234DC08130B9F0C3
S113071028F0823031F18330B1F108954AB321E0F9
S113072030E0B90102C0660F771F9A95E2F7CB015A
S1130730962F909594239ABB9BB3892BB2CF47B342
S113074021E030E0B90102C0660F771F9A95E2F705
S1130750CB01962F9095942397BB98B3892B88BB94
S1130760089544B321E030E0B90102C0660F771F59
S11307709A95E2F7CB01962F9095942394BB95B369
S1130780892B85BB089541B321E030E0B90102C053
S1130790660F771F9A95E2F7CB01962F90959423D5
S11307A091BB92B3892B82BB08950F931F93CF9370
S11307B00BE710E0C0E0F80161918F018C2F0E94DB
S11307C0E402CF5FC032B9F7CF911F910F91089522
S11307D0982F97708695869586956130C1F58130FE
S11307E091F028F08230D9F0833029F108954BB389
S11307F021E030E0B90102C0660F771F9A95E2F755
S1130800CB01842B38C048B321E030E0B90102C0E9
S1130810660F771F9A95E2F7CB01842B3AC045B354
S113082021E030E0B90102C0660F771F9A95E2F724
S1130830CB01842B3CC042B321E030E0B90102C0BB
S1130840660F771F9A95E2F7CB01842B3EC0813067
S1130850A1F028F08230F9F0833059F108954BB3B8
S113086021E030E0B90102C0660F771F9A95E2F7E4
S1130870CB01809584238BBB089548B321E030E0FD
S1130880B90102C0660F771F9A95E2F7CB018095F4
S1130890842388BB089545B321E030E0B90102C048
S11308A0660F771F9A95E2F7CB018095842385BB69
S11308B0089542B321E030E0B90102C0660F771F0A
S11308C09A95E2F7CB018095842382BB0895282F63
S11308D02770869586958695813049F030F0823070
S11308E041F0833079F480B305C089B303C086B383
S11308F001C083B390E002C0959587952A95E2F7ED
S11309008170089580E00895813039F018F08230C4
S113091039F008958BB7806405C08BB7806802C036
S11309208BB780628BBF08958130F1F018F082306C
S1130930B1F10895613049F028F0623061F063301C
S113094069F0089585B78E7F02C085B7816085BF41
S113095085B78D7F22C085B78E7F02C085B7816041
S113096085BF85B7826019C0613049F028F06230D4
S113097061F0633069F0089585B78B7F02C085B755
S1130980846085BF85B7877F08C085B78B7F02C029
S113099085B7846085BF85B7886085BF0895623058
S11309A029F0633019F484B7806402C084B78F7B64
S11309B084BF089562E080E00E94940462E081E0D4
S11309C00E94940462E082E00C949404813049F023
S11309D018F0823059F008957093A8006093A7002E
S11309E008957093A6006093A50008957093A400E1
S11309F06093A30008951F920F920FB60F921124D3
S1130A002F933F934F935F936F937F938F939F9312
S1130A10AF93BF93EF93FF93E091A700F091A800E9
S1130A20309709F00995FF91EF91BF91AF919F9194
S1130A308F917F916F915F914F913F912F910F9083
S1130A400FBE0F901F90189578941F920F920FB6B7
S1130A500F9211242F933F934F935F936F937F9340
S1130A608F939F93AF93BF93EF93FF93E091A50070
S1130A70F091A600309709F00995FF91EF91BF918D
S1130A80AF919F918F917F916F915F914F913F9122
S1130A902F910F900FBE0F901F9018951F920F92D9
S1130AA00FB60F9211242F933F934F935F936F933D
S1130AB07F938F939F93AF93BF93EF93FF93E091B3
S1130AC0A300F091A400309709F00995FF91EF91EC
S1130AD0BF91AF919F918F917F916F915F914F9152
S1130AE03F912F910F900FBE0F901F901895052ED8
S1130AF097FB1EF400940E948E0557FD07D00E94B8
S1130B00AB0507FC03D04EF40C948E05509540952C
S1130B10309521953F4F4F4F5F4F089590958095A5
S1130B20709561957F4F8F4F9F4F0895EE0FFF1F74
S1130B300590F491E02D0994A29FB001B39FC001E8
S1130B40A39F700D811D1124911DB29F700D811DF5
S1130B501124911D0895A1E21A2EAA1BBB1BFD01AD
S1130B600DC0AA1FBB1FEE1FFF1FA217B307E40788
S1130B70F50720F0A21BB30BE40BF50B661F771FE0
S1130B80881F991F1A9469F76095709580959095C0
S1110B909B01AC01BD01CF010895F894FFCF85
S1130B9E4578496E746572727570745F4144430092
S1130BAE4144433D00564F4C543D000100000000AB
S1130BBE0000000000000000000000000000000023
S10F0BCE00000000020202020202020009
S9030000FC
