S00F00004156525F4E54492E73726563E2
S11300000C9432000C947D040C94A6040C94D0043B
S11300100C944F000C944F000C944F000C944F0020
S11300200C944F000C944F000C944F000C944F0010
S11300300C944F000C944F000C944F000C944F0000
S11300400C944A020C944F000C944F000C944F00F3
S11300500C944F00200222022702290231023302AB
S113006038023A0211241FBECFE5D8E0DEBFCDBF6F
S113007010E0A0E6B0E0E8E4FAE002C005900D92DA
S1130080AA39B107D9F720E0AAE9B0E001C01D926E
S1130090A73AB207E1F70E94B6010C9422050C942A
S11300A00000CF93DF93EC0161E083E00E947703CB
S11300B061E082E00E94770361E08DE00E947703B3
S11300C061E08EE00E94770360E083E00E947703A2
S11300D0CE016AE070E00E94F904EB01FC01E05AF1
S11300E0FF4F6081606681E00E94F60361E082E078
S11300F00E9477038FEC97E00197F1F700C00000AE
S113010060E082E00E947703C05ADF4F6881606636
S113011081E00E94F60361E083E00E9477038FECA4
S113012097E00197F1F700C00000DF91CF910895A7
S1130130CF93C82F60E083E00E9477036C2F661F83
S11301406627661F8CE00E947703C6FB662760F96A
S11301508AE00E947703C5FB662760F989E00E9464
S11301607703C4FB662760F988E00E94770361E0A7
S113017082E00E9477038FEC97E00197F1F700C0CB
S1130180000060E082E00E9477038FEC97E0019723
S1130190F1F700C00000C3FB662760F98CE00E9401
S11301A07703C2FB662760F98AE00E947703C1FBEC
S11301B0662760F989E00E9477036C2F617088E0FC
S11301C00E94770361E082E00E9477038FEC97E05E
S11301D00197F1F700C0000060E082E00E9477031D
S11301E08FEC97E00197F1F700C00000CF910895DC
S11301F0CF93C82F61E083E00E9477036C2F661FC2
S11302006627661F8CE00E947703C6FB662760F9A9
S11302108AE00E947703C5FB662760F989E00E94A3
S11302207703C4FB662760F988E00E94770361E0E6
S113023082E00E9477038FEC97E00197F1F700C00A
S1130240000060E082E00E9477038FEC97E0019762
S1130250F1F700C00000C3FB662760F98CE00E9440
S11302607703C2FB662760F98AE00E947703C1FB2B
S1130270662760F989E00E9477036C2F617088E03B
S11302800E94770361E082E00E9477038FEC97E09D
S11302900197F1F700C0000060E082E00E9477035C
S11302A08FEC97E00197F1F700C00000CF9108951B
S11302B081E00E9498008FEC97E00197F1F700C06D
S11302C0000008952FE788E391E02150804090409A
S11302D0E1F700C0000082E00E94980088E20E94DA
S11302E098008CE00E9498000E94580186E00C94CB
S11302F09800982F862F911102C080580BC091301E
S113030011F4805407C0923011F48C5603C093301A
S113031019F48C520C94980008950F931F93CF9363
S11303208C01C0E0F801EC0FF11D8081882321F0DD
S11303300E94F800CF5FF6CFCF911F910F910895DF
S113034081E080939E00089580E00E94F8019093DC
S11303509D0080939C0080E00E94040290939B0087
S113036080939A0082E080939E00089578940E947E
S113037064030E945C040E94620166E081E00E94C2
S1130380E3010E94430280E00E94060463E080E0EF
S11303900E94160482E00E94150260EA71E080E087
S11303A00E94680484EA91E00E94450260E080E0D3
S11303B00E9479018AE690E00E948D0183E290E038
S11303C00E945100FBCF813041F028F0823039F493
S11303D03E9A3F9A04C03E9801C03E9A3F9886B127
S11303E0887F86B986B16770682B66B9379A089595
S11303F097B1907E97B997B1892B87B9369A369978
S1130400FECF84B195B108950E94F8019C01A8E83B
S1130410B3E10E941305DC01CB012AE0B695A79550
S1130420979587952A95D1F70895359A90E0883065
S1130430910540F5FC01E65DFF4F80B70C940D0576
S11304408F7D01C0806280BF80B78F7B06C08F7DA7
S113045001C0806280BF80B7806480BF80B78F771F
S113046010C08F7D01C0806280BF80B78F7B06C0C3
S11304708F7D01C0806280BF80B7806480BF80B7F9
S1130480806880BF0895339A08959093A000809364
S11304909F0008951F920F920FB60F9211242F936D
S11304A03F934F935F936F937F938F939F93AF93F8
S11304B0BF93EF93FF93E0919F00F091A0003097DA
S11304C009F00995FF91EF91BF91AF919F918F91A1
S11304D07F916F915F914F913F912F910F900FBE3C
S11304E00F901F901895982F9770869586958695EE
S11304F0613009F44DC020F0623009F496C00895CB
S11305008130B1F028F0823019F1833089F10895F7
S11305104AB321E030E0B90102C0660F771F9A9513
S1130520E2F7CB01942F982B9ABB9BB3809547C0DD
S113053047B321E030E0B90102C0660F771F9A95F6
S1130540E2F7CB01942F982B97BB98B3809549C0C1
S113055044B321E030E0B90102C0660F771F9A95D9
S1130560E2F7CB01942F982B94BB95B380954AC0A6
S113057041B321E030E0B90102C0660F771F9A95BC
S1130580E2F7CB01942F982B91BB92B380954BC08B
S11305908130C1F028F0823031F18330A9F108951F
S11305A04AB321E030E0B90102C0660F771F9A9583
S11305B0E2F7CB018095942F98239ABB9BB38923B0
S11305C08BBB089547B321E030E0B90102C0660F48
S11305D0771F9A95E2F7CB018095942F982397BBC8
S11305E098B389234BC044B321E030E0B90102C081
S11305F0660F771F9A95E2F7CB018095942F982385
S113060094BB95B389234CC041B321E030E0B901D8
S113061002C0660F771F9A95E2F7CB018095942F5D
S1130620982391BB92B389234DC08130B9F028F04F
S1130630823031F18330B1F108954AB321E030E0E2
S1130640B90102C0660F771F9A95E2F7CB01962F86
S1130650909594239ABB9BB3892BB2CF47B321E0E7
S113066030E0B90102C0660F771F9A95E2F7CB011B
S1130670962F9095942397BB98B3892B88BB0895A4
S113068044B321E030E0B90102C0660F771F9A95A8
S1130690E2F7CB01962F9095942394BB95B3892BC5
S11306A085BB089541B321E030E0B90102C0660F73
S11306B0771F9A95E2F7CB01962F9095942391BBDF
S11306C092B3892B82BB08950F931F93CF930AE7AC
S11306D010E0C0E0F80161918F018C2F0E94730239
S11306E0CF5FC032B9F7CF911F910F910895982F22
S11306F097708695869586956130C1F5813091F025
S113070028F08230D9F0833029F108954BB321E0E9
S113071030E0B90102C0660F771F9A95E2F7CB016A
S1130720842B38C048B321E030E0B90102C0660F21
S1130730771F9A95E2F7CB01842B3AC045B321E0A9
S113074030E0B90102C0660F771F9A95E2F7CB013A
S1130750842B3CC042B321E030E0B90102C0660FF3
S1130760771F9A95E2F7CB01842B3EC08130A1F02C
S113077028F08230F9F0833059F108954BB321E029
S113078030E0B90102C0660F771F9A95E2F7CB01FA
S1130790809584238BBB089548B321E030E0B901F0
S11307A002C0660F771F9A95E2F7CB0180958423E8
S11307B088BB089545B321E030E0B90102C0660F5B
S11307C0771F9A95E2F7CB018095842385BB089522
S11307D042B321E030E0B90102C0660F771F9A9559
S11307E0E2F7CB018095842382BB0895813041F0E8
S11307F028F0823039F0833039F008956BBB0895C6
S113080068BB089565BB089562BB0895813039F0D3
S113081018F0823039F008958BB7806405C08BB727
S1130820806802C08BB780628BBF08958130F1F07D
S113083018F08230B1F10895613049F028F0623047
S113084061F0633069F0089585B78E7F02C085B783
S1130850816085BF85B78D7F22C085B78E7F02C03A
S113086085B7816085BF85B7826019C0613049F062
S113087028F0623061F0633069F0089585B78B7FAA
S113088002C085B7846085BF85B7877F08C085B7F8
S11308908B7F02C085B7846085BF85B7886085BFBC
S11308A00895623029F0633019F484B7806402C07B
S11308B084B78F7B84BF089562E080E00E941604B1
S11308C062E081E00E94160462E082E00C94160467
S11308D0813049F018F0823059F008957093A600E1
S11308E06093A50008957093A4006093A3000895F5
S11308F07093A2006093A10008951F920F920FB607
S11309000F9211242F933F934F935F936F937F9391
S11309108F939F93AF93BF93EF93FF93E091A500C1
S1130920F091A600309709F00995FF91EF91BF91DE
S1130930AF919F918F917F916F915F914F913F9173
S11309402F910F900FBE0F901F90189578941F92BF
S11309500F920FB60F9211242F933F934F935F93EF
S11309606F937F938F939F93AF93BF93EF93FF9373
S1130970E091A300F091A400309709F00995FF914C
S1130980EF91BF91AF919F918F917F916F915F9103
S11309904F913F912F910F900FBE0F901F9018957C
S11309A01F920F920FB60F9211242F933F934F93E0
S11309B05F936F937F938F939F93AF93BF93EF93C3
S11309C0FF93E091A100F091A200309709F00995FE
S11309D0FF91EF91BF91AF919F918F917F916F9113
S11309E05F914F913F912F910F900FBE0F901F90E9
S11309F01895AA1BBB1B51E107C0AA1FBB1FA61752
S1130A00B70710F0A61BB70B881F991F5A95A9F7B3
S1130A1080959095BC01CD010895EE0FFF1F0590C0
S1130A20F491E02D0994A29FB001B39FC001A39F4C
S1130A30700D811D1124911DB29F700D811D112413
S10B0A40911D0895F894FFCF05
S1130A48000102030405060710114578496E746510
S1130A5872727570745F4144430001000000000025
S1130A68000000000000000000000000000000007A
S10D0A780000000202020202020262
S9030000FC
